{
  "_format": "hh3-artifact-1",
  "contractName": "NFTContract",
  "sourceName": "contracts/NFTContract.sol",
  "abi": [
    {
      "inputs": [],
      "stateMutability": "nonpayable",
      "type": "constructor"
    },
    {
      "inputs": [
        {
          "internalType": "uint256",
          "name": "numerator",
          "type": "uint256"
        },
        {
          "internalType": "uint256",
          "name": "denominator",
          "type": "uint256"
        }
      ],
      "name": "ERC2981InvalidDefaultRoyalty",
      "type": "error"
    },
    {
      "inputs": [
        {
          "internalType": "address",
          "name": "receiver",
          "type": "address"
        }
      ],
      "name": "ERC2981InvalidDefaultRoyaltyReceiver",
      "type": "error"
    },
    {
      "inputs": [
        {
          "internalType": "uint256",
          "name": "tokenId",
          "type": "uint256"
        },
        {
          "internalType": "uint256",
          "name": "numerator",
          "type": "uint256"
        },
        {
          "internalType": "uint256",
          "name": "denominator",
          "type": "uint256"
        }
      ],
      "name": "ERC2981InvalidTokenRoyalty",
      "type": "error"
    },
    {
      "inputs": [
        {
          "internalType": "uint256",
          "name": "tokenId",
          "type": "uint256"
        },
        {
          "internalType": "address",
          "name": "receiver",
          "type": "address"
        }
      ],
      "name": "ERC2981InvalidTokenRoyaltyReceiver",
      "type": "error"
    },
    {
      "inputs": [
        {
          "internalType": "address",
          "name": "sender",
          "type": "address"
        },
        {
          "internalType": "uint256",
          "name": "tokenId",
          "type": "uint256"
        },
        {
          "internalType": "address",
          "name": "owner",
          "type": "address"
        }
      ],
      "name": "ERC721IncorrectOwner",
      "type": "error"
    },
    {
      "inputs": [
        {
          "internalType": "address",
          "name": "operator",
          "type": "address"
        },
        {
          "internalType": "uint256",
          "name": "tokenId",
          "type": "uint256"
        }
      ],
      "name": "ERC721InsufficientApproval",
      "type": "error"
    },
    {
      "inputs": [
        {
          "internalType": "address",
          "name": "approver",
          "type": "address"
        }
      ],
      "name": "ERC721InvalidApprover",
      "type": "error"
    },
    {
      "inputs": [
        {
          "internalType": "address",
          "name": "operator",
          "type": "address"
        }
      ],
      "name": "ERC721InvalidOperator",
      "type": "error"
    },
    {
      "inputs": [
        {
          "internalType": "address",
          "name": "owner",
          "type": "address"
        }
      ],
      "name": "ERC721InvalidOwner",
      "type": "error"
    },
    {
      "inputs": [
        {
          "internalType": "address",
          "name": "receiver",
          "type": "address"
        }
      ],
      "name": "ERC721InvalidReceiver",
      "type": "error"
    },
    {
      "inputs": [
        {
          "internalType": "address",
          "name": "sender",
          "type": "address"
        }
      ],
      "name": "ERC721InvalidSender",
      "type": "error"
    },
    {
      "inputs": [
        {
          "internalType": "uint256",
          "name": "tokenId",
          "type": "uint256"
        }
      ],
      "name": "ERC721NonexistentToken",
      "type": "error"
    },
    {
      "inputs": [
        {
          "internalType": "address",
          "name": "owner",
          "type": "address"
        }
      ],
      "name": "OwnableInvalidOwner",
      "type": "error"
    },
    {
      "inputs": [
        {
          "internalType": "address",
          "name": "account",
          "type": "address"
        }
      ],
      "name": "OwnableUnauthorizedAccount",
      "type": "error"
    },
    {
      "inputs": [],
      "name": "ReentrancyGuardReentrantCall",
      "type": "error"
    },
    {
      "anonymous": false,
      "inputs": [
        {
          "indexed": true,
          "internalType": "address",
          "name": "owner",
          "type": "address"
        },
        {
          "indexed": true,
          "internalType": "address",
          "name": "approved",
          "type": "address"
        },
        {
          "indexed": true,
          "internalType": "uint256",
          "name": "tokenId",
          "type": "uint256"
        }
      ],
      "name": "Approval",
      "type": "event"
    },
    {
      "anonymous": false,
      "inputs": [
        {
          "indexed": true,
          "internalType": "address",
          "name": "owner",
          "type": "address"
        },
        {
          "indexed": true,
          "internalType": "address",
          "name": "operator",
          "type": "address"
        },
        {
          "indexed": false,
          "internalType": "bool",
          "name": "approved",
          "type": "bool"
        }
      ],
      "name": "ApprovalForAll",
      "type": "event"
    },
    {
      "anonymous": false,
      "inputs": [
        {
          "indexed": true,
          "internalType": "address",
          "name": "previousOwner",
          "type": "address"
        },
        {
          "indexed": true,
          "internalType": "address",
          "name": "newOwner",
          "type": "address"
        }
      ],
      "name": "OwnershipTransferred",
      "type": "event"
    },
    {
      "anonymous": false,
      "inputs": [
        {
          "indexed": true,
          "internalType": "address",
          "name": "from",
          "type": "address"
        },
        {
          "indexed": true,
          "internalType": "address",
          "name": "to",
          "type": "address"
        },
        {
          "indexed": true,
          "internalType": "uint256",
          "name": "tokenId",
          "type": "uint256"
        }
      ],
      "name": "Transfer",
      "type": "event"
    },
    {
      "inputs": [
        {
          "internalType": "address",
          "name": "to",
          "type": "address"
        },
        {
          "internalType": "uint256",
          "name": "tokenId",
          "type": "uint256"
        }
      ],
      "name": "approve",
      "outputs": [],
      "stateMutability": "nonpayable",
      "type": "function"
    },
    {
      "inputs": [
        {
          "internalType": "uint256",
          "name": "",
          "type": "uint256"
        }
      ],
      "name": "auctions",
      "outputs": [
        {
          "internalType": "uint256",
          "name": "startPrice",
          "type": "uint256"
        },
        {
          "internalType": "uint256",
          "name": "endTime",
          "type": "uint256"
        },
        {
          "internalType": "uint256",
          "name": "highestBid",
          "type": "uint256"
        },
        {
          "internalType": "address",
          "name": "highestBidder",
          "type": "address"
        }
      ],
      "stateMutability": "view",
      "type": "function"
    },
    {
      "inputs": [
        {
          "internalType": "address",
          "name": "owner",
          "type": "address"
        }
      ],
      "name": "balanceOf",
      "outputs": [
        {
          "internalType": "uint256",
          "name": "",
          "type": "uint256"
        }
      ],
      "stateMutability": "view",
      "type": "function"
    },
    {
      "inputs": [],
      "name": "baseURI",
      "outputs": [
        {
          "internalType": "string",
          "name": "",
          "type": "string"
        }
      ],
      "stateMutability": "view",
      "type": "function"
    },
    {
      "inputs": [
        {
          "internalType": "uint256",
          "name": "tokenId",
          "type": "uint256"
        }
      ],
      "name": "bid",
      "outputs": [],
      "stateMutability": "payable",
      "type": "function"
    },
    {
      "inputs": [
        {
          "internalType": "uint256",
          "name": "tokenId",
          "type": "uint256"
        }
      ],
      "name": "buyFromListing",
      "outputs": [],
      "stateMutability": "payable",
      "type": "function"
    },
    {
      "inputs": [
        {
          "internalType": "uint256",
          "name": "tokenId",
          "type": "uint256"
        }
      ],
      "name": "cancelListing",
      "outputs": [],
      "stateMutability": "nonpayable",
      "type": "function"
    },
    {
      "inputs": [
        {
          "internalType": "uint256",
          "name": "tokenId",
          "type": "uint256"
        }
      ],
      "name": "endAuction",
      "outputs": [],
      "stateMutability": "nonpayable",
      "type": "function"
    },
    {
      "inputs": [
        {
          "internalType": "uint256",
          "name": "tokenId",
          "type": "uint256"
        }
      ],
      "name": "getApproved",
      "outputs": [
        {
          "internalType": "address",
          "name": "",
          "type": "address"
        }
      ],
      "stateMutability": "view",
      "type": "function"
    },
    {
      "inputs": [
        {
          "internalType": "address",
          "name": "owner",
          "type": "address"
        },
        {
          "internalType": "address",
          "name": "operator",
          "type": "address"
        }
      ],
      "name": "isApprovedForAll",
      "outputs": [
        {
          "internalType": "bool",
          "name": "",
          "type": "bool"
        }
      ],
      "stateMutability": "view",
      "type": "function"
    },
    {
      "inputs": [
        {
          "internalType": "uint256",
          "name": "tokenId",
          "type": "uint256"
        },
        {
          "internalType": "uint256",
          "name": "price",
          "type": "uint256"
        },
        {
          "internalType": "uint256",
          "name": "duration",
          "type": "uint256"
        }
      ],
      "name": "listForSale",
      "outputs": [],
      "stateMutability": "nonpayable",
      "type": "function"
    },
    {
      "inputs": [
        {
          "internalType": "uint256",
          "name": "",
          "type": "uint256"
        }
      ],
      "name": "listings",
      "outputs": [
        {
          "internalType": "uint256",
          "name": "price",
          "type": "uint256"
        },
        {
          "internalType": "uint256",
          "name": "expireTime",
          "type": "uint256"
        },
        {
          "internalType": "bool",
          "name": "isListed",
          "type": "bool"
        }
      ],
      "stateMutability": "view",
      "type": "function"
    },
    {
      "inputs": [
        {
          "internalType": "address",
          "name": "to",
          "type": "address"
        }
      ],
      "name": "mint",
      "outputs": [
        {
          "internalType": "uint256",
          "name": "",
          "type": "uint256"
        }
      ],
      "stateMutability": "nonpayable",
      "type": "function"
    },
    {
      "inputs": [],
      "name": "name",
      "outputs": [
        {
          "internalType": "string",
          "name": "",
          "type": "string"
        }
      ],
      "stateMutability": "view",
      "type": "function"
    },
    {
      "inputs": [],
      "name": "owner",
      "outputs": [
        {
          "internalType": "address",
          "name": "",
          "type": "address"
        }
      ],
      "stateMutability": "view",
      "type": "function"
    },
    {
      "inputs": [
        {
          "internalType": "uint256",
          "name": "tokenId",
          "type": "uint256"
        }
      ],
      "name": "ownerOf",
      "outputs": [
        {
          "internalType": "address",
          "name": "",
          "type": "address"
        }
      ],
      "stateMutability": "view",
      "type": "function"
    },
    {
      "inputs": [],
      "name": "renounceOwnership",
      "outputs": [],
      "stateMutability": "nonpayable",
      "type": "function"
    },
    {
      "inputs": [
        {
          "internalType": "uint256",
          "name": "tokenId",
          "type": "uint256"
        },
        {
          "internalType": "uint256",
          "name": "salePrice",
          "type": "uint256"
        }
      ],
      "name": "royaltyInfo",
      "outputs": [
        {
          "internalType": "address",
          "name": "receiver",
          "type": "address"
        },
        {
          "internalType": "uint256",
          "name": "amount",
          "type": "uint256"
        }
      ],
      "stateMutability": "view",
      "type": "function"
    },
    {
      "inputs": [
        {
          "internalType": "address",
          "name": "from",
          "type": "address"
        },
        {
          "internalType": "address",
          "name": "to",
          "type": "address"
        },
        {
          "internalType": "uint256",
          "name": "tokenId",
          "type": "uint256"
        }
      ],
      "name": "safeTransferFrom",
      "outputs": [],
      "stateMutability": "nonpayable",
      "type": "function"
    },
    {
      "inputs": [
        {
          "internalType": "address",
          "name": "from",
          "type": "address"
        },
        {
          "internalType": "address",
          "name": "to",
          "type": "address"
        },
        {
          "internalType": "uint256",
          "name": "tokenId",
          "type": "uint256"
        },
        {
          "internalType": "bytes",
          "name": "data",
          "type": "bytes"
        }
      ],
      "name": "safeTransferFrom",
      "outputs": [],
      "stateMutability": "nonpayable",
      "type": "function"
    },
    {
      "inputs": [
        {
          "internalType": "address",
          "name": "operator",
          "type": "address"
        },
        {
          "internalType": "bool",
          "name": "approved",
          "type": "bool"
        }
      ],
      "name": "setApprovalForAll",
      "outputs": [],
      "stateMutability": "nonpayable",
      "type": "function"
    },
    {
      "inputs": [
        {
          "internalType": "uint256",
          "name": "tokenId",
          "type": "uint256"
        },
        {
          "internalType": "uint256",
          "name": "startPrice",
          "type": "uint256"
        },
        {
          "internalType": "uint256",
          "name": "duration",
          "type": "uint256"
        }
      ],
      "name": "startAuction",
      "outputs": [],
      "stateMutability": "nonpayable",
      "type": "function"
    },
    {
      "inputs": [
        {
          "internalType": "bytes4",
          "name": "interfaceId",
          "type": "bytes4"
        }
      ],
      "name": "supportsInterface",
      "outputs": [
        {
          "internalType": "bool",
          "name": "",
          "type": "bool"
        }
      ],
      "stateMutability": "view",
      "type": "function"
    },
    {
      "inputs": [],
      "name": "symbol",
      "outputs": [
        {
          "internalType": "string",
          "name": "",
          "type": "string"
        }
      ],
      "stateMutability": "view",
      "type": "function"
    },
    {
      "inputs": [],
      "name": "tokenCounter",
      "outputs": [
        {
          "internalType": "uint256",
          "name": "",
          "type": "uint256"
        }
      ],
      "stateMutability": "view",
      "type": "function"
    },
    {
      "inputs": [
        {
          "internalType": "uint256",
          "name": "tokenId",
          "type": "uint256"
        }
      ],
      "name": "tokenURI",
      "outputs": [
        {
          "internalType": "string",
          "name": "",
          "type": "string"
        }
      ],
      "stateMutability": "view",
      "type": "function"
    },
    {
      "inputs": [
        {
          "internalType": "address",
          "name": "from",
          "type": "address"
        },
        {
          "internalType": "address",
          "name": "to",
          "type": "address"
        },
        {
          "internalType": "uint256",
          "name": "tokenId",
          "type": "uint256"
        }
      ],
      "name": "transferFrom",
      "outputs": [],
      "stateMutability": "nonpayable",
      "type": "function"
    },
    {
      "inputs": [
        {
          "internalType": "address",
          "name": "newOwner",
          "type": "address"
        }
      ],
      "name": "transferOwnership",
      "outputs": [],
      "stateMutability": "nonpayable",
      "type": "function"
    },
    {
      "inputs": [],
      "name": "withdraw",
      "outputs": [],
      "stateMutability": "nonpayable",
      "type": "function"
    }
  ],
  "bytecode": "0x60c0604052601a60809081527f68747470733a2f2f6170692e6d796e66742e636f6d2f6e66742f00000000000060a052600a906200003e90826200029f565b503480156200004b575f80fd5b50336040518060400160405280600b81526020016a135e4810dbdbdb0813919560aa1b8152506040518060400160405280600381526020016226a1a760e91b815250815f90816200009d91906200029f565b506001620000ac82826200029f565b5050506001600160a01b038116620000de57604051631e4fbdf760e01b81525f60048201526024015b60405180910390fd5b620000e98162000108565b5060016007819055600b5562000102336101f462000159565b62000367565b600680546001600160a01b038381166001600160a01b0319831681179093556040519116919082907f8be0079c531659141344cd1fd0a4f28419497f9722a3daafe3b4186f6b6457e0905f90a35050565b6127106001600160601b0382168110156200019a57604051636f483d0960e01b81526001600160601b038316600482015260248101829052604401620000d5565b6001600160a01b038316620001c557604051635b6cc80560e11b81525f6004820152602401620000d5565b50604080518082019091526001600160a01b039092168083526001600160601b039091166020909201829052600160a01b90910217600855565b634e487b7160e01b5f52604160045260245ffd5b600181811c908216806200022857607f821691505b6020821081036200024757634e487b7160e01b5f52602260045260245ffd5b50919050565b601f8211156200029a575f81815260208120601f850160051c81016020861015620002755750805b601f850160051c820191505b81811015620002965782815560010162000281565b5050505b505050565b81516001600160401b03811115620002bb57620002bb620001ff565b620002d381620002cc845462000213565b846200024d565b602080601f83116001811462000309575f8415620002f15750858301515b5f19600386901b1c1916600185901b17855562000296565b5f85815260208120601f198616915b82811015620003395788860151825594840194600190910190840162000318565b50858210156200035757878501515f19600388901b60f8161c191681555b5050505050600190811b01905550565b61200980620003755f395ff3fe6080604052600436106101ba575f3560e01c806370a08231116100f2578063b88d4fde11610092578063de74e57b11610062578063de74e57b14610526578063e985e9c514610580578063ee3c65d51461059f578063f2fde38b146105be575f80fd5b8063b88d4fde146104b4578063b9a2de3a146104d3578063c87b56dd146104f2578063d082e38114610511575f80fd5b806391e078bb116100cd57806391e078bb1461044f57806395d89b411461046e578063a22cb46514610482578063b3470ce4146104a1575f80fd5b806370a08231146103ff578063715018a61461041e5780638da5cb5b14610432575f80fd5b80633ccfd60b1161015d578063571a26a011610138578063571a26a01461032d5780636352211e1461039f5780636a627842146103be5780636c0360eb146103eb575f80fd5b80633ccfd60b146102e757806342842e0e146102fb578063454a2ab31461031a575f80fd5b8063095ea7b311610198578063095ea7b31461024a57806323b872dd1461026b5780632a55205a1461028a578063305a67a8146102c8575f80fd5b806301ffc9a7146101be57806306fdde03146101f2578063081812fc14610213575b5f80fd5b3480156101c9575f80fd5b506101dd6101d8366004611aef565b6105dd565b60405190151581526020015b60405180910390f35b3480156101fd575f80fd5b506102066105ed565b6040516101e99190611b5e565b34801561021e575f80fd5b5061023261022d366004611b70565b61067c565b6040516001600160a01b0390911681526020016101e9565b348015610255575f80fd5b50610269610264366004611b9b565b6106a3565b005b348015610276575f80fd5b50610269610285366004611bc5565b6106b2565b348015610295575f80fd5b506102a96102a4366004611c03565b610740565b604080516001600160a01b0390931683526020830191909152016101e9565b3480156102d3575f80fd5b506102696102e2366004611b70565b6107c3565b3480156102f2575f80fd5b5061026961086f565b348015610306575f80fd5b50610269610315366004611bc5565b6108ad565b610269610328366004611b70565b6108cc565b348015610338575f80fd5b50610376610347366004611b70565b600d6020525f90815260409020805460018201546002830154600390930154919290916001600160a01b031684565b604080519485526020850193909352918301526001600160a01b031660608201526080016101e9565b3480156103aa575f80fd5b506102326103b9366004611b70565b6109e7565b3480156103c9575f80fd5b506103dd6103d8366004611c23565b6109f1565b6040519081526020016101e9565b3480156103f6575f80fd5b50610206610a22565b34801561040a575f80fd5b506103dd610419366004611c23565b610aae565b348015610429575f80fd5b50610269610af3565b34801561043d575f80fd5b506006546001600160a01b0316610232565b34801561045a575f80fd5b50610269610469366004611c3e565b610b06565b348015610479575f80fd5b50610206610caf565b34801561048d575f80fd5b5061026961049c366004611c67565b610cbe565b6102696104af366004611b70565b610cc9565b3480156104bf575f80fd5b506102696104ce366004611cb6565b610e52565b3480156104de575f80fd5b506102696104ed366004611b70565b610e6a565b3480156104fd575f80fd5b5061020661050c366004611b70565b610fd2565b34801561051c575f80fd5b506103dd600b5481565b348015610531575f80fd5b50610563610540366004611b70565b600c6020525f908152604090208054600182015460029092015490919060ff1683565b6040805193845260208401929092521515908201526060016101e9565b34801561058b575f80fd5b506101dd61059a366004611d8f565b611010565b3480156105aa575f80fd5b506102696105b9366004611c3e565b61103d565b3480156105c9575f80fd5b506102696105d8366004611c23565b61120d565b5f6105e782611247565b92915050565b60605f80546105fb90611dbb565b80601f016020809104026020016040519081016040528092919081815260200182805461062790611dbb565b80156106725780601f1061064957610100808354040283529160200191610672565b820191905f5260205f20905b81548152906001019060200180831161065557829003601f168201915b5050505050905090565b5f6106868261126b565b505f828152600460205260409020546001600160a01b03166105e7565b6106ae8282336112a3565b5050565b6001600160a01b0382166106e057604051633250574960e11b81525f60048201526024015b60405180910390fd5b5f6106ec8383336112b0565b9050836001600160a01b0316816001600160a01b03161461073a576040516364283d7b60e01b81526001600160a01b03808616600483015260248201849052821660448201526064016106d7565b50505050565b5f82815260096020526040812080548291906001600160a01b03811690600160a01b90046001600160601b0316816107935750506008546001600160a01b03811690600160a01b90046001600160601b03165b5f6127106107aa6001600160601b03841689611e07565b6107b49190611e1e565b92989297509195505050505050565b336107cd826109e7565b6001600160a01b0316146107f35760405162461bcd60e51b81526004016106d790611e3d565b5f818152600c602052604090206002015460ff166108405760405162461bcd60e51b815260206004820152600a602482015269139bdd081b1a5cdd195960b21b60448201526064016106d7565b5f818152600c6020526040812081815560018101829055600201805460ff1916905561086c90826106a3565b50565b6108776113a2565b6006546040516001600160a01b03909116904780156108fc02915f818181858888f1935050505015801561086c573d5f803e3d5ffd5b6108c783838360405180602001604052805f815250610e52565b505050565b6108d46113cf565b5f818152600d60205260409020600181015442106109245760405162461bcd60e51b815260206004820152600d60248201526c105d58dd1a5bdb88195b991959609a1b60448201526064016106d7565b806002015434118015610938575080543410155b6109725760405162461bcd60e51b815260206004820152600b60248201526a42696420746f6f206c6f7760a81b60448201526064016106d7565b60038101546001600160a01b0316156109c457600381015460028201546040516001600160a01b039092169181156108fc0291905f818181858888f193505050501580156109c2573d5f803e3d5ffd5b505b34600282015560030180546001600160a01b0319163317905561086c6001600755565b5f6105e78261126b565b5f6109fa6113a2565b600b54610a0783826113f9565b600b8054905f610a1683611e60565b90915550909392505050565b600a8054610a2f90611dbb565b80601f0160208091040260200160405190810160405280929190818152602001828054610a5b90611dbb565b8015610aa65780601f10610a7d57610100808354040283529160200191610aa6565b820191905f5260205f20905b815481529060010190602001808311610a8957829003601f168201915b505050505081565b5f6001600160a01b038216610ad8576040516322718ad960e21b81525f60048201526024016106d7565b506001600160a01b03165f9081526003602052604090205490565b610afb6113a2565b610b045f611412565b565b6040516331a9108f60e11b8152600481018490525f903090636352211e90602401602060405180830381865afa925050508015610b60575060408051601f3d908101601f19168201909252610b5d91810190611e78565b60015b610b6b57505f610b71565b60019150505b80610baf5760405162461bcd60e51b815260206004820152600e60248201526d139195081b9bdd081b5a5b9d195960921b60448201526064016106d7565b33610bb9856109e7565b6001600160a01b031614610bdf5760405162461bcd60e51b81526004016106d790611e3d565b5f8311610c2e5760405162461bcd60e51b815260206004820152601c60248201527f5374617274207072696365206d75737420626520706f7369746976650000000060448201526064016106d7565b5f610c398342611e93565b6040805160808101825286815260208082018481525f838501818152606085018281528c8352600d90945294902092518355516001830155915160028201559051600390910180546001600160a01b0319166001600160a01b039092169190911790559050610ca830866106a3565b5050505050565b6060600180546105fb90611dbb565b6106ae338383611463565b610cd16113cf565b5f818152600c60209081526040918290208251606081018452815481526001820154928101929092526002015460ff16151591810182905290610d455760405162461bcd60e51b815260206004820152600c60248201526b4e6f7420666f722073616c6560a01b60448201526064016106d7565b80602001514210610d8a5760405162461bcd60e51b815260206004820152600f60248201526e131a5cdd1a5b99c8195e1c1a5c9959608a1b60448201526064016106d7565b80513414610dc85760405162461bcd60e51b815260206004820152600b60248201526a57726f6e6720707269636560a81b60448201526064016106d7565b5f610dd2836109e7565b5f848152600c6020908152604080832083815560018101849055600201805460ff1916905580519182019052908152909150610e1390829033908690611501565b6040516001600160a01b038216903480156108fc02915f818181858888f19350505050158015610e45573d5f803e3d5ffd5b50505061086c6001600755565b610e5d8484846106b2565b61073a338585858561150c565b610e726113cf565b5f818152600d60209081526040918290208251608081018452815481526001820154928101839052600282015493810193909352600301546001600160a01b03166060830152421015610efb5760405162461bcd60e51b8152602060048201526011602482015270105d58dd1a5bdb881b9bdd08195b991959607a1b60448201526064016106d7565b60608101516001600160a01b0316610f3f5760405162461bcd60e51b81526020600482015260076024820152664e6f206269647360c81b60448201526064016106d7565b5f610f49836109e7565b5f848152600d60209081526040808320838155600181018490556002810184905560030180546001600160a01b031916905560608601518151928301909152918152919250610f9c918391908690611501565b60408083015190516001600160a01b0383169180156108fc02915f818181858888f19350505050158015610e45573d5f803e3d5ffd5b6060610fdd8261126b565b50600a610fe983611633565b604051602001610ffa929190611ec1565b6040516020818303038152906040529050919050565b6001600160a01b039182165f90815260056020908152604080832093909416825291909152205460ff1690565b6040516331a9108f60e11b8152600481018490525f903090636352211e90602401602060405180830381865afa925050508015611097575060408051601f3d908101601f1916820190925261109491810190611e78565b60015b6110a257505f6110a8565b60019150505b806110e65760405162461bcd60e51b815260206004820152600e60248201526d139195081b9bdd081b5a5b9d195960921b60448201526064016106d7565b336110f0856109e7565b6001600160a01b0316146111165760405162461bcd60e51b81526004016106d790611e3d565b5f831161115e5760405162461bcd60e51b81526020600482015260166024820152755072696365206d75737420626520706f73697469766560501b60448201526064016106d7565b5f82116111ad5760405162461bcd60e51b815260206004820152601960248201527f4475726174696f6e206d75737420626520706f7369746976650000000000000060448201526064016106d7565b5f6111b88342611e93565b60408051606081018252868152602080820184815260018385018181525f8c8152600c9094529490922092518355519082015590516002909101805460ff19169115159190911790559050610ca830866106a3565b6112156113a2565b6001600160a01b03811661123e57604051631e4fbdf760e01b81525f60048201526024016106d7565b61086c81611412565b5f6001600160e01b0319821663152a902d60e11b14806105e757506105e7826116c3565b5f818152600260205260408120546001600160a01b0316806105e757604051637e27328960e01b8152600481018490526024016106d7565b6108c78383836001611712565b5f828152600260205260408120546001600160a01b03908116908316156112dc576112dc818486611816565b6001600160a01b03811615611316576112f75f855f80611712565b6001600160a01b0381165f90815260036020526040902080545f190190555b6001600160a01b03851615611344576001600160a01b0385165f908152600360205260409020805460010190555b5f8481526002602052604080822080546001600160a01b0319166001600160a01b0389811691821790925591518793918516917fddf252ad1be2c89b69c2b068fc378daa952ba7f163c4a11628f55a4df523b3ef91a4949350505050565b6006546001600160a01b03163314610b045760405163118cdaa760e01b81523360048201526024016106d7565b6002600754036113f257604051633ee5aeb560e01b815260040160405180910390fd5b6002600755565b6106ae828260405180602001604052805f81525061187a565b600680546001600160a01b038381166001600160a01b0319831681179093556040519116919082907f8be0079c531659141344cd1fd0a4f28419497f9722a3daafe3b4186f6b6457e0905f90a35050565b6001600160a01b03821661149557604051630b61174360e31b81526001600160a01b03831660048201526024016106d7565b6001600160a01b038381165f81815260056020908152604080832094871680845294825291829020805460ff191686151590811790915591519182527f17307eab39ab6107e8899845ad3d59bd9653f200f220920489ca2b5937696c31910160405180910390a3505050565b610e5d848484611891565b6001600160a01b0383163b15610ca857604051630a85bd0160e11b81526001600160a01b0384169063150b7a029061154e908890889087908790600401611f7c565b6020604051808303815f875af1925050508015611588575060408051601f3d908101601f1916820190925261158591810190611fb8565b60015b6115ef573d8080156115b5576040519150601f19603f3d011682016040523d82523d5f602084013e6115ba565b606091505b5080515f036115e757604051633250574960e11b81526001600160a01b03851660048201526024016106d7565b805160208201fd5b6001600160e01b03198116630a85bd0160e11b1461162b57604051633250574960e11b81526001600160a01b03851660048201526024016106d7565b505050505050565b60605f61163f8361193e565b60010190505f8167ffffffffffffffff81111561165e5761165e611ca2565b6040519080825280601f01601f191660200182016040528015611688576020820181803683370190505b5090508181016020015b5f19016f181899199a1a9b1b9c1cb0b131b232b360811b600a86061a8153600a850494508461169257509392505050565b5f6001600160e01b031982166380ac58cd60e01b14806116f357506001600160e01b03198216635b5e139f60e01b145b806105e757506301ffc9a760e01b6001600160e01b03198316146105e7565b808061172657506001600160a01b03821615155b156117e7575f6117358461126b565b90506001600160a01b038316158015906117615750826001600160a01b0316816001600160a01b031614155b801561177457506117728184611010565b155b1561179d5760405163a9fbf51f60e01b81526001600160a01b03841660048201526024016106d7565b81156117e55783856001600160a01b0316826001600160a01b03167f8c5be1e5ebec7d5bd14f71427d1e84f3dd0314c0f7b2291e5b200ac8c7c3b92560405160405180910390a45b505b50505f90815260046020526040902080546001600160a01b0319166001600160a01b0392909216919091179055565b611821838383611a15565b6108c7576001600160a01b03831661184f57604051637e27328960e01b8152600481018290526024016106d7565b60405163177e802f60e01b81526001600160a01b0383166004820152602481018290526044016106d7565b6118848383611a79565b6108c7335f85858561150c565b6001600160a01b0382166118ba57604051633250574960e11b81525f60048201526024016106d7565b5f6118c683835f6112b0565b90506001600160a01b0381166118f257604051637e27328960e01b8152600481018390526024016106d7565b836001600160a01b0316816001600160a01b03161461073a576040516364283d7b60e01b81526001600160a01b03808616600483015260248201849052821660448201526064016106d7565b5f8072184f03e93ff9f4daa797ed6e38ed64bf6a1f0160401b831061197c5772184f03e93ff9f4daa797ed6e38ed64bf6a1f0160401b830492506040015b6d04ee2d6d415b85acef810000000083106119a8576d04ee2d6d415b85acef8100000000830492506020015b662386f26fc1000083106119c657662386f26fc10000830492506010015b6305f5e10083106119de576305f5e100830492506008015b61271083106119f257612710830492506004015b60648310611a04576064830492506002015b600a83106105e75760010192915050565b5f6001600160a01b03831615801590611a715750826001600160a01b0316846001600160a01b03161480611a4e5750611a4e8484611010565b80611a7157505f828152600460205260409020546001600160a01b038481169116145b949350505050565b6001600160a01b038216611aa257604051633250574960e11b81525f60048201526024016106d7565b5f611aae83835f6112b0565b90506001600160a01b038116156108c7576040516339e3563760e11b81525f60048201526024016106d7565b6001600160e01b03198116811461086c575f80fd5b5f60208284031215611aff575f80fd5b8135611b0a81611ada565b9392505050565b5f5b83811015611b2b578181015183820152602001611b13565b50505f910152565b5f8151808452611b4a816020860160208601611b11565b601f01601f19169290920160200192915050565b602081525f611b0a6020830184611b33565b5f60208284031215611b80575f80fd5b5035919050565b6001600160a01b038116811461086c575f80fd5b5f8060408385031215611bac575f80fd5b8235611bb781611b87565b946020939093013593505050565b5f805f60608486031215611bd7575f80fd5b8335611be281611b87565b92506020840135611bf281611b87565b929592945050506040919091013590565b5f8060408385031215611c14575f80fd5b50508035926020909101359150565b5f60208284031215611c33575f80fd5b8135611b0a81611b87565b5f805f60608486031215611c50575f80fd5b505081359360208301359350604090920135919050565b5f8060408385031215611c78575f80fd5b8235611c8381611b87565b915060208301358015158114611c97575f80fd5b809150509250929050565b634e487b7160e01b5f52604160045260245ffd5b5f805f8060808587031215611cc9575f80fd5b8435611cd481611b87565b93506020850135611ce481611b87565b925060408501359150606085013567ffffffffffffffff80821115611d07575f80fd5b818701915087601f830112611d1a575f80fd5b813581811115611d2c57611d2c611ca2565b604051601f8201601f19908116603f01168101908382118183101715611d5457611d54611ca2565b816040528281528a6020848701011115611d6c575f80fd5b826020860160208301375f60208483010152809550505050505092959194509250565b5f8060408385031215611da0575f80fd5b8235611dab81611b87565b91506020830135611c9781611b87565b600181811c90821680611dcf57607f821691505b602082108103611ded57634e487b7160e01b5f52602260045260245ffd5b50919050565b634e487b7160e01b5f52601160045260245ffd5b80820281158282048414176105e7576105e7611df3565b5f82611e3857634e487b7160e01b5f52601260045260245ffd5b500490565b6020808252600990820152682737ba1037bbb732b960b91b604082015260600190565b5f60018201611e7157611e71611df3565b5060010190565b5f60208284031215611e88575f80fd5b8151611b0a81611b87565b808201808211156105e7576105e7611df3565b5f8151611eb7818560208601611b11565b9290920192915050565b5f80845481600182811c915080831680611edc57607f831692505b60208084108203611efb57634e487b7160e01b86526022600452602486fd5b818015611f0f5760018114611f2457611f4f565b60ff1986168952841515850289019650611f4f565b5f8b8152602090205f5b86811015611f475781548b820152908501908301611f2e565b505084890196505b505050505050611f73611f628286611ea6565b64173539b7b760d91b815260050190565b95945050505050565b6001600160a01b03858116825284166020820152604081018390526080606082018190525f90611fae90830184611b33565b9695505050505050565b5f60208284031215611fc8575f80fd5b8151611b0a81611ada56fea2646970667358221220f9e83ae3419d52dd07d1433e7d3221b5405df2ef6bc18dae70f3a7b692d3d86064736f6c63430008140033",
  "linkReferences": {},
  "deployedLinkReferences": {},
  "immutableReferences": {},
  "inputSourceName": "project/contracts/NFTContract.sol",
  "buildInfoId": "solc-0_8_20-97417d21d699e36cee274c56c6189428d2e07aeb"
}