{
  "_format": "hh3-artifact-1",
  "contractName": "UniswapV2Router02",
  "sourceName": "contracts/UniswapV2Router02.sol",
  "abi": [
    {
      "inputs": [
        {
          "internalType": "address",
          "name": "_factory",
          "type": "address"
        },
        {
          "internalType": "address",
          "name": "_WETH",
          "type": "address"
        }
      ],
      "stateMutability": "nonpayable",
      "type": "constructor"
    },
    {
      "inputs": [],
      "name": "WETH",
      "outputs": [
        {
          "internalType": "address",
          "name": "",
          "type": "address"
        }
      ],
      "stateMutability": "view",
      "type": "function"
    },
    {
      "inputs": [
        {
          "internalType": "address",
          "name": "tokenA",
          "type": "address"
        },
        {
          "internalType": "address",
          "name": "tokenB",
          "type": "address"
        },
        {
          "internalType": "uint256",
          "name": "amountADesired",
          "type": "uint256"
        },
        {
          "internalType": "uint256",
          "name": "amountBDesired",
          "type": "uint256"
        },
        {
          "internalType": "uint256",
          "name": "amountAMin",
          "type": "uint256"
        },
        {
          "internalType": "uint256",
          "name": "amountBMin",
          "type": "uint256"
        },
        {
          "internalType": "address",
          "name": "to",
          "type": "address"
        },
        {
          "internalType": "uint256",
          "name": "deadline",
          "type": "uint256"
        }
      ],
      "name": "addLiquidity",
      "outputs": [
        {
          "internalType": "uint256",
          "name": "amountA",
          "type": "uint256"
        },
        {
          "internalType": "uint256",
          "name": "amountB",
          "type": "uint256"
        },
        {
          "internalType": "uint256",
          "name": "liquidity",
          "type": "uint256"
        }
      ],
      "stateMutability": "nonpayable",
      "type": "function"
    },
    {
      "inputs": [
        {
          "internalType": "address",
          "name": "token",
          "type": "address"
        },
        {
          "internalType": "uint256",
          "name": "amountTokenDesired",
          "type": "uint256"
        },
        {
          "internalType": "uint256",
          "name": "amountTokenMin",
          "type": "uint256"
        },
        {
          "internalType": "uint256",
          "name": "amountETHMin",
          "type": "uint256"
        },
        {
          "internalType": "address",
          "name": "to",
          "type": "address"
        },
        {
          "internalType": "uint256",
          "name": "deadline",
          "type": "uint256"
        }
      ],
      "name": "addLiquidityETH",
      "outputs": [
        {
          "internalType": "uint256",
          "name": "amountToken",
          "type": "uint256"
        },
        {
          "internalType": "uint256",
          "name": "amountETH",
          "type": "uint256"
        },
        {
          "internalType": "uint256",
          "name": "liquidity",
          "type": "uint256"
        }
      ],
      "stateMutability": "payable",
      "type": "function"
    },
    {
      "inputs": [],
      "name": "factory",
      "outputs": [
        {
          "internalType": "address",
          "name": "",
          "type": "address"
        }
      ],
      "stateMutability": "view",
      "type": "function"
    },
    {
      "inputs": [
        {
          "internalType": "uint256",
          "name": "amountOut",
          "type": "uint256"
        },
        {
          "internalType": "uint256",
          "name": "reserveIn",
          "type": "uint256"
        },
        {
          "internalType": "uint256",
          "name": "reserveOut",
          "type": "uint256"
        }
      ],
      "name": "getAmountIn",
      "outputs": [
        {
          "internalType": "uint256",
          "name": "amountIn",
          "type": "uint256"
        }
      ],
      "stateMutability": "pure",
      "type": "function"
    },
    {
      "inputs": [
        {
          "internalType": "uint256",
          "name": "amountIn",
          "type": "uint256"
        },
        {
          "internalType": "uint256",
          "name": "reserveIn",
          "type": "uint256"
        },
        {
          "internalType": "uint256",
          "name": "reserveOut",
          "type": "uint256"
        }
      ],
      "name": "getAmountOut",
      "outputs": [
        {
          "internalType": "uint256",
          "name": "amountOut",
          "type": "uint256"
        }
      ],
      "stateMutability": "pure",
      "type": "function"
    },
    {
      "inputs": [
        {
          "internalType": "uint256",
          "name": "amountOut",
          "type": "uint256"
        },
        {
          "internalType": "address[]",
          "name": "path",
          "type": "address[]"
        }
      ],
      "name": "getAmountsIn",
      "outputs": [
        {
          "internalType": "uint256[]",
          "name": "amounts",
          "type": "uint256[]"
        }
      ],
      "stateMutability": "view",
      "type": "function"
    },
    {
      "inputs": [
        {
          "internalType": "uint256",
          "name": "amountIn",
          "type": "uint256"
        },
        {
          "internalType": "address[]",
          "name": "path",
          "type": "address[]"
        }
      ],
      "name": "getAmountsOut",
      "outputs": [
        {
          "internalType": "uint256[]",
          "name": "amounts",
          "type": "uint256[]"
        }
      ],
      "stateMutability": "view",
      "type": "function"
    },
    {
      "inputs": [
        {
          "internalType": "uint256",
          "name": "amountA",
          "type": "uint256"
        },
        {
          "internalType": "uint256",
          "name": "reserveA",
          "type": "uint256"
        },
        {
          "internalType": "uint256",
          "name": "reserveB",
          "type": "uint256"
        }
      ],
      "name": "quote",
      "outputs": [
        {
          "internalType": "uint256",
          "name": "amountB",
          "type": "uint256"
        }
      ],
      "stateMutability": "pure",
      "type": "function"
    },
    {
      "inputs": [
        {
          "internalType": "address",
          "name": "tokenA",
          "type": "address"
        },
        {
          "internalType": "address",
          "name": "tokenB",
          "type": "address"
        },
        {
          "internalType": "uint256",
          "name": "liquidity",
          "type": "uint256"
        },
        {
          "internalType": "uint256",
          "name": "amountAMin",
          "type": "uint256"
        },
        {
          "internalType": "uint256",
          "name": "amountBMin",
          "type": "uint256"
        },
        {
          "internalType": "address",
          "name": "to",
          "type": "address"
        },
        {
          "internalType": "uint256",
          "name": "deadline",
          "type": "uint256"
        }
      ],
      "name": "removeLiquidity",
      "outputs": [
        {
          "internalType": "uint256",
          "name": "amountA",
          "type": "uint256"
        },
        {
          "internalType": "uint256",
          "name": "amountB",
          "type": "uint256"
        }
      ],
      "stateMutability": "nonpayable",
      "type": "function"
    },
    {
      "inputs": [
        {
          "internalType": "address",
          "name": "token",
          "type": "address"
        },
        {
          "internalType": "uint256",
          "name": "liquidity",
          "type": "uint256"
        },
        {
          "internalType": "uint256",
          "name": "amountTokenMin",
          "type": "uint256"
        },
        {
          "internalType": "uint256",
          "name": "amountETHMin",
          "type": "uint256"
        },
        {
          "internalType": "address",
          "name": "to",
          "type": "address"
        },
        {
          "internalType": "uint256",
          "name": "deadline",
          "type": "uint256"
        }
      ],
      "name": "removeLiquidityETH",
      "outputs": [
        {
          "internalType": "uint256",
          "name": "amountToken",
          "type": "uint256"
        },
        {
          "internalType": "uint256",
          "name": "amountETH",
          "type": "uint256"
        }
      ],
      "stateMutability": "nonpayable",
      "type": "function"
    },
    {
      "inputs": [
        {
          "internalType": "uint256",
          "name": "amountIn",
          "type": "uint256"
        },
        {
          "internalType": "uint256",
          "name": "amountOutMin",
          "type": "uint256"
        },
        {
          "internalType": "address[]",
          "name": "path",
          "type": "address[]"
        },
        {
          "internalType": "address",
          "name": "to",
          "type": "address"
        },
        {
          "internalType": "uint256",
          "name": "deadline",
          "type": "uint256"
        }
      ],
      "name": "swapExactTokensForTokens",
      "outputs": [
        {
          "internalType": "uint256[]",
          "name": "amounts",
          "type": "uint256[]"
        }
      ],
      "stateMutability": "nonpayable",
      "type": "function"
    },
    {
      "inputs": [
        {
          "internalType": "uint256",
          "name": "amountOut",
          "type": "uint256"
        },
        {
          "internalType": "uint256",
          "name": "amountInMax",
          "type": "uint256"
        },
        {
          "internalType": "address[]",
          "name": "path",
          "type": "address[]"
        },
        {
          "internalType": "address",
          "name": "to",
          "type": "address"
        },
        {
          "internalType": "uint256",
          "name": "deadline",
          "type": "uint256"
        }
      ],
      "name": "swapTokensForExactTokens",
      "outputs": [
        {
          "internalType": "uint256[]",
          "name": "amounts",
          "type": "uint256[]"
        }
      ],
      "stateMutability": "nonpayable",
      "type": "function"
    },
    {
      "stateMutability": "payable",
      "type": "receive"
    }
  ],
  "bytecode": "0x60c060405234801562000010575f80fd5b506040516200238738038062002387833981016040819052620000339162000067565b6001600160a01b039182166080521660a0526200009d565b80516001600160a01b038116811462000062575f80fd5b919050565b5f806040838503121562000079575f80fd5b62000084836200004b565b915062000094602084016200004b565b90509250929050565b60805160a05161223d6200014a5f395f818160d2015281816102050152818161034e0152818161040501528181610c5101528181610ca601528181610d400152610dd101525f818161028e015281816104bf01528181610516015281816106350152818161079e015281816108a601528181610a3e01528181610aa101528181610c8401528181611496015281816114e601528181611855015281816118f50152611968015261223d5ff3fe6080604052600436106100c2575f3560e01c8063ad5c46481161007c578063c45a015511610057578063c45a01551461027d578063d06ca61f146102b0578063e8e33700146102cf578063f305d71914610309575f80fd5b8063ad5c4648146101f4578063ad615dec1461023f578063baa2abde1461025e575f80fd5b806302751cec14610105578063054d50d41461013e5780631f00ca741461016b57806338ed17391461019757806385f8c259146101b65780638803dbee146101d5575f80fd5b3661010157336001600160a01b037f000000000000000000000000000000000000000000000000000000000000000016146100ff576100ff611b68565b005b5f80fd5b348015610110575f80fd5b5061012461011f366004611ba3565b61031c565b604080519283526020830191909152015b60405180910390f35b348015610149575f80fd5b5061015d610158366004611bfd565b6104a4565b604051908152602001610135565b348015610176575f80fd5b5061018a610185366004611c3a565b6104b8565b6040516101359190611d06565b3480156101a2575f80fd5b5061018a6101b1366004611d49565b6104ee565b3480156101c1575f80fd5b5061015d6101d0366004611bfd565b61076a565b3480156101e0575f80fd5b5061018a6101ef366004611d49565b610776565b3480156101ff575f80fd5b506102277f000000000000000000000000000000000000000000000000000000000000000081565b6040516001600160a01b039091168152602001610135565b34801561024a575f80fd5b5061015d610259366004611bfd565b610871565b348015610269575f80fd5b50610124610278366004611de3565b61087d565b348015610288575f80fd5b506102277f000000000000000000000000000000000000000000000000000000000000000081565b3480156102bb575f80fd5b5061018a6102ca366004611c3a565b610a37565b3480156102da575f80fd5b506102ee6102e9366004611e50565b610a64565b60408051938452602084019290925290820152606001610135565b6102ee610317366004611ba3565b610c27565b5f8082428110156103485760405162461bcd60e51b815260040161033f90611ec7565b60405180910390fd5b610377897f00000000000000000000000000000000000000000000000000000000000000008a8a8a308a61087d565b60405163a9059cbb60e01b81526001600160a01b03888116600483015260248201849052929550909350908a169063a9059cbb906044016020604051808303815f875af11580156103ca573d5f803e3d5ffd5b505050506040513d601f19601f820116820180604052508101906103ee9190611efe565b50604051632e1a7d4d60e01b8152600481018390527f00000000000000000000000000000000000000000000000000000000000000006001600160a01b031690632e1a7d4d906024015f604051808303815f87803b15801561044e575f80fd5b505af1158015610460573d5f803e3d5ffd5b50506040516001600160a01b038816925084156108fc02915084905f818181858888f19350505050158015610497573d5f803e3d5ffd5b5050965096945050505050565b5f6104b0848484610f01565b949350505050565b60606104e57f00000000000000000000000000000000000000000000000000000000000000008484610fda565b90505b92915050565b606081428110156105115760405162461bcd60e51b815260040161033f90611ec7565b61056e7f0000000000000000000000000000000000000000000000000000000000000000898888808060200260200160405190810160405280939291908181526020018383602002808284375f9201919091525061116e92505050565b91508682600184516105809190611f38565b8151811061059057610590611f4b565b602002602001015110156105fa5760405162461bcd60e51b815260206004820152602b60248201527f556e69737761705632526f757465723a20494e53554646494349454e545f4f5560448201526a1514155517d05353d5539560aa1b606482015260840161033f565b85855f81811061060c5761060c611f4b565b90506020020160208101906106219190611f5f565b6001600160a01b03166323b872dd336106a87f00000000000000000000000000000000000000000000000000000000000000008a8a5f81811061066657610666611f4b565b905060200201602081019061067b9190611f5f565b8b8b600181811061068e5761068e611f4b565b90506020020160208101906106a39190611f5f565b6112e1565b855f815181106106ba576106ba611f4b565b60200260200101516040518463ffffffff1660e01b81526004016106e093929190611f7a565b6020604051808303815f875af11580156106fc573d5f803e3d5ffd5b505050506040513d601f19601f820116820180604052508101906107209190611efe565b5061075f828787808060200260200160405190810160405280939291908181526020018383602002808284375f920191909152508992506113bb915050565b509695505050505050565b5f6104b08484846115b5565b606081428110156107995760405162461bcd60e51b815260040161033f90611ec7565b6107f67f0000000000000000000000000000000000000000000000000000000000000000898888808060200260200160405190810160405280939291908181526020018383602002808284375f92019190915250610fda92505050565b915086825f8151811061080b5761080b611f4b565b602002602001015111156105fa5760405162461bcd60e51b815260206004820152602760248201527f556e69737761705632526f757465723a204558434553534956455f494e50555460448201526617d05353d5539560ca1b606482015260840161033f565b5f6104b0848484611695565b5f8082428110156108a05760405162461bcd60e51b815260040161033f90611ec7565b5f6108cc7f00000000000000000000000000000000000000000000000000000000000000008c8c6112e1565b6040516323b872dd60e01b81529091506001600160a01b038216906323b872dd906108ff90339085908e90600401611f7a565b6020604051808303815f875af115801561091b573d5f803e3d5ffd5b505050506040513d601f19601f8201168201806040525081019061093f9190611efe565b5060405163226bf2d160e21b81526001600160a01b0387811660048301525f9182918416906389afcb449060240160408051808303815f875af1158015610988573d5f803e3d5ffd5b505050506040513d601f19601f820116820180604052508101906109ac9190611f9e565b915091505f6109bb8e8e611732565b509050806001600160a01b03168e6001600160a01b0316146109de5781836109e1565b82825b90975095508a871015610a065760405162461bcd60e51b815260040161033f90611fc0565b89861015610a265760405162461bcd60e51b815260040161033f90612006565b505050505097509795505050505050565b60606104e57f0000000000000000000000000000000000000000000000000000000000000000848461116e565b5f805f8342811015610a885760405162461bcd60e51b815260040161033f90611ec7565b610a968c8c8c8c8c8c611828565b90945092505f610ac77f00000000000000000000000000000000000000000000000000000000000000008e8e6112e1565b6040516323b872dd60e01b81529091506001600160a01b038e16906323b872dd90610afa90339085908a90600401611f7a565b6020604051808303815f875af1158015610b16573d5f803e3d5ffd5b505050506040513d601f19601f82011682018060405250810190610b3a9190611efe565b506040516323b872dd60e01b81526001600160a01b038d16906323b872dd90610b6b90339085908990600401611f7a565b6020604051808303815f875af1158015610b87573d5f803e3d5ffd5b505050506040513d601f19601f82011682018060405250810190610bab9190611efe565b506040516335313c2160e11b81526001600160a01b038881166004830152821690636a627842906024016020604051808303815f875af1158015610bf1573d5f803e3d5ffd5b505050506040513d601f19601f82011682018060405250810190610c15919061204c565b92505050985098509895505050505050565b5f805f8342811015610c4b5760405162461bcd60e51b815260040161033f90611ec7565b610c798a7f00000000000000000000000000000000000000000000000000000000000000008b348c8c611828565b90945092505f610cca7f00000000000000000000000000000000000000000000000000000000000000008c7f00000000000000000000000000000000000000000000000000000000000000006112e1565b6040516323b872dd60e01b81529091506001600160a01b038c16906323b872dd90610cfd90339085908a90600401611f7a565b6020604051808303815f875af1158015610d19573d5f803e3d5ffd5b505050506040513d601f19601f82011682018060405250810190610d3d9190611efe565b507f00000000000000000000000000000000000000000000000000000000000000006001600160a01b031663d0e30db0856040518263ffffffff1660e01b81526004015f604051808303818588803b158015610d97575f80fd5b505af1158015610da9573d5f803e3d5ffd5b505060405163a9059cbb60e01b81526001600160a01b038581166004830152602482018990527f000000000000000000000000000000000000000000000000000000000000000016935063a9059cbb925060440190506020604051808303815f875af1158015610e1b573d5f803e3d5ffd5b505050506040513d601f19601f82011682018060405250810190610e3f9190611efe565b610e4b57610e4b611b68565b6040516335313c2160e11b81526001600160a01b038881166004830152821690636a627842906024016020604051808303815f875af1158015610e90573d5f803e3d5ffd5b505050506040513d601f19601f82011682018060405250810190610eb4919061204c565b925083341115610ef357336108fc610ecc8634611f38565b6040518115909202915f818181858888f19350505050158015610ef1573d5f803e3d5ffd5b505b505096509650969350505050565b5f808411610f655760405162461bcd60e51b815260206004820152602b60248201527f556e697377617056324c6962726172793a20494e53554646494349454e545f4960448201526a1394155517d05353d5539560aa1b606482015260840161033f565b5f83118015610f7357505f82115b610f8f5760405162461bcd60e51b815260040161033f90612063565b5f610f9c856103e56120ab565b90505f610fa984836120ab565b90505f82610fb9876103e86120ab565b610fc391906120c2565b9050610fcf81836120d5565b979650505050505050565b606060028251101561102e5760405162461bcd60e51b815260206004820152601e60248201527f556e697377617056324c6962726172793a20494e56414c49445f504154480000604482015260640161033f565b815167ffffffffffffffff81111561104857611048611c26565b604051908082528060200260200182016040528015611071578160200160208202803683370190505b5090508281600183516110849190611f38565b8151811061109457611094611f4b565b6020026020010181815250505f600183516110af9190611f38565b90505b8015611166575f8061110187866110ca600187611f38565b815181106110da576110da611f4b565b60200260200101518786815181106110f4576110f4611f4b565b6020026020010151611aa3565b9150915061112984848151811061111a5761111a611f4b565b602002602001015183836115b5565b84611135600186611f38565b8151811061114557611145611f4b565b6020026020010181815250505050808061115e906120f4565b9150506110b2565b509392505050565b60606002825110156111c25760405162461bcd60e51b815260206004820152601e60248201527f556e697377617056324c6962726172793a20494e56414c49445f504154480000604482015260640161033f565b815167ffffffffffffffff8111156111dc576111dc611c26565b604051908082528060200260200182016040528015611205578160200160208202803683370190505b50905082815f8151811061121b5761121b611f4b565b6020026020010181815250505f5b600183516112379190611f38565b811015611166575f8061127c8786858151811061125657611256611f4b565b60200260200101518786600161126c91906120c2565b815181106110f4576110f4611f4b565b915091506112a484848151811061129557611295611f4b565b60200260200101518383610f01565b846112b08560016120c2565b815181106112c0576112c0611f4b565b602002602001018181525050505080806112d990612109565b915050611229565b5f805f6112ee8585611732565b6040516bffffffffffffffffffffffff19606084811b8216602084015283901b1660348201529193509150869060480160408051601f19818403018152908290528051602091820120611399939290917f585c233e6b67f05d08792fac9f5244a4a8878211443721c854f013566a8b174891016001600160f81b0319815260609390931b6bffffffffffffffffffffffff191660018401526015830191909152603582015260550190565b60408051601f1981840301815291905280516020909101209695505050505050565b5f5b600183516113cb9190611f38565b8110156115af575f808483815181106113e6576113e6611f4b565b6020026020010151858460016113fc91906120c2565b8151811061140c5761140c611f4b565b6020026020010151915091505f6114238383611732565b5090505f876114338660016120c2565b8151811061144357611443611f4b565b602002602001015190505f80836001600160a01b0316866001600160a01b03161461146f57825f611472565b5f835b915091505f60028a516114859190611f38565b881061149157886114df565b6114df7f0000000000000000000000000000000000000000000000000000000000000000878c6114c28c60026120c2565b815181106114d2576114d2611f4b565b60200260200101516112e1565b905061150c7f000000000000000000000000000000000000000000000000000000000000000088886112e1565b6001600160a01b031663022c0d9f8484845f6040519080825280601f01601f191660200182016040528015611548576020820181803683370190505b506040518563ffffffff1660e01b81526004016115689493929190612121565b5f604051808303815f87803b15801561157f575f80fd5b505af1158015611591573d5f803e3d5ffd5b505050505050505050505080806115a790612109565b9150506113bd565b50505050565b5f80841161161a5760405162461bcd60e51b815260206004820152602c60248201527f556e697377617056324c6962726172793a20494e53554646494349454e545f4f60448201526b155514155517d05353d5539560a21b606482015260840161033f565b5f8311801561162857505f82115b6116445760405162461bcd60e51b815260040161033f90612063565b5f61164f85856120ab565b61165b906103e86120ab565b90505f6116688685611f38565b611674906103e56120ab565b905061168081836120d5565b61168b9060016120c2565b9695505050505050565b5f8084116116f35760405162461bcd60e51b815260206004820152602560248201527f556e697377617056324c6962726172793a20494e53554646494349454e545f416044820152641353d5539560da1b606482015260840161033f565b5f8311801561170157505f82115b61171d5760405162461bcd60e51b815260040161033f90612063565b8261172883866120ab565b6104b091906120d5565b5f80826001600160a01b0316846001600160a01b0316036117a35760405162461bcd60e51b815260206004820152602560248201527f556e697377617056324c6962726172793a204944454e544943414c5f41444452604482015264455353455360d81b606482015260840161033f565b826001600160a01b0316846001600160a01b0316106117c35782846117c6565b83835b90925090506001600160a01b0382166118215760405162461bcd60e51b815260206004820152601e60248201527f556e697377617056324c6962726172793a205a45524f5f414444524553530000604482015260640161033f565b9250929050565b60405163e6a4390560e01b81526001600160a01b03878116600483015286811660248301525f91829182917f00000000000000000000000000000000000000000000000000000000000000009091169063e6a4390590604401602060405180830381865afa15801561189c573d5f803e3d5ffd5b505050506040513d601f19601f820116820180604052508101906118c0919061218a565b6001600160a01b031603611961576040516364e329cb60e11b81526001600160a01b03898116600483015288811660248301527f0000000000000000000000000000000000000000000000000000000000000000169063c9c65396906044016020604051808303815f875af115801561193b573d5f803e3d5ffd5b505050506040513d601f19601f8201168201806040525081019061195f919061218a565b505b5f8061198e7f00000000000000000000000000000000000000000000000000000000000000008b8b6112e1565b6001600160a01b0316630902f1ac6040518163ffffffff1660e01b8152600401606060405180830381865afa1580156119c9573d5f803e3d5ffd5b505050506040513d601f19601f820116820180604052508101906119ed91906121bb565b506001600160701b031691506001600160701b03169150815f148015611a11575080155b15611a2157879350869250610497565b5f611a2d898484611695565b9050878111611a615785811015611a565760405162461bcd60e51b815260040161033f90612006565b889450925082611a95565b5f611a6d898486611695565b905089811115611a8f5760405162461bcd60e51b815260040161033f90611fc0565b94508793505b505050965096945050505050565b5f805f611ab08585611732565b5090505f80611ac08888886112e1565b6001600160a01b0316630902f1ac6040518163ffffffff1660e01b8152600401606060405180830381865afa158015611afb573d5f803e3d5ffd5b505050506040513d601f19601f82011682018060405250810190611b1f91906121bb565b506001600160701b031691506001600160701b03169150826001600160a01b0316876001600160a01b031614611b56578082611b59565b81815b90999098509650505050505050565b634e487b7160e01b5f52600160045260245ffd5b6001600160a01b0381168114611b90575f80fd5b50565b8035611b9e81611b7c565b919050565b5f805f805f8060c08789031215611bb8575f80fd5b8635611bc381611b7c565b95506020870135945060408701359350606087013592506080870135611be881611b7c565b8092505060a087013590509295509295509295565b5f805f60608486031215611c0f575f80fd5b505081359360208301359350604090920135919050565b634e487b7160e01b5f52604160045260245ffd5b5f8060408385031215611c4b575f80fd5b8235915060208084013567ffffffffffffffff80821115611c6a575f80fd5b818601915086601f830112611c7d575f80fd5b813581811115611c8f57611c8f611c26565b8060051b604051601f19603f83011681018181108582111715611cb457611cb4611c26565b604052918252848201925083810185019189831115611cd1575f80fd5b938501935b82851015611cf657611ce785611b93565b84529385019392850192611cd6565b8096505050505050509250929050565b602080825282518282018190525f9190848201906040850190845b81811015611d3d57835183529284019291840191600101611d21565b50909695505050505050565b5f805f805f8060a08789031215611d5e575f80fd5b8635955060208701359450604087013567ffffffffffffffff80821115611d83575f80fd5b818901915089601f830112611d96575f80fd5b813581811115611da4575f80fd5b8a60208260051b8501011115611db8575f80fd5b602083019650809550505050611dd060608801611b93565b9150608087013590509295509295509295565b5f805f805f805f60e0888a031215611df9575f80fd5b8735611e0481611b7c565b96506020880135611e1481611b7c565b955060408801359450606088013593506080880135925060a0880135611e3981611b7c565b8092505060c0880135905092959891949750929550565b5f805f805f805f80610100898b031215611e68575f80fd5b8835611e7381611b7c565b97506020890135611e8381611b7c565b965060408901359550606089013594506080890135935060a0890135925060c0890135611eaf81611b7c565b8092505060e089013590509295985092959890939650565b60208082526018908201527f556e69737761705632526f757465723a20455850495245440000000000000000604082015260600190565b5f60208284031215611f0e575f80fd5b81518015158114611f1d575f80fd5b9392505050565b634e487b7160e01b5f52601160045260245ffd5b818103818111156104e8576104e8611f24565b634e487b7160e01b5f52603260045260245ffd5b5f60208284031215611f6f575f80fd5b8135611f1d81611b7c565b6001600160a01b039384168152919092166020820152604081019190915260600190565b5f8060408385031215611faf575f80fd5b505080516020909101519092909150565b60208082526026908201527f556e69737761705632526f757465723a20494e53554646494349454e545f415f604082015265105353d5539560d21b606082015260800190565b60208082526026908201527f556e69737761705632526f757465723a20494e53554646494349454e545f425f604082015265105353d5539560d21b606082015260800190565b5f6020828403121561205c575f80fd5b5051919050565b60208082526028908201527f556e697377617056324c6962726172793a20494e53554646494349454e545f4c604082015267495155494449545960c01b606082015260800190565b80820281158282048414176104e8576104e8611f24565b808201808211156104e8576104e8611f24565b5f826120ef57634e487b7160e01b5f52601260045260245ffd5b500490565b5f8161210257612102611f24565b505f190190565b5f6001820161211a5761211a611f24565b5060010190565b8481525f6020858184015260018060a01b03851660408401526080606084015283518060808501525f5b818110156121675785810183015185820160a00152820161214b565b505f60a0828601015260a0601f19601f8301168501019250505095945050505050565b5f6020828403121561219a575f80fd5b8151611f1d81611b7c565b80516001600160701b0381168114611b9e575f80fd5b5f805f606084860312156121cd575f80fd5b6121d6846121a5565b92506121e4602085016121a5565b9150604084015163ffffffff811681146121fc575f80fd5b80915050925092509256fea26469706673582212209e9a44e3658d2e847cf78e807cc84ed39f6df3a7e7def8a828dedf5da15d636564736f6c63430008140033",
  "linkReferences": {},
  "deployedLinkReferences": {},
  "immutableReferences": {
    "9645": [
      {
        "length": 32,
        "start": 654
      },
      {
        "length": 32,
        "start": 1215
      },
      {
        "length": 32,
        "start": 1302
      },
      {
        "length": 32,
        "start": 1589
      },
      {
        "length": 32,
        "start": 1950
      },
      {
        "length": 32,
        "start": 2214
      },
      {
        "length": 32,
        "start": 2622
      },
      {
        "length": 32,
        "start": 2721
      },
      {
        "length": 32,
        "start": 3204
      },
      {
        "length": 32,
        "start": 5270
      },
      {
        "length": 32,
        "start": 5350
      },
      {
        "length": 32,
        "start": 6229
      },
      {
        "length": 32,
        "start": 6389
      },
      {
        "length": 32,
        "start": 6504
      }
    ],
    "9648": [
      {
        "length": 32,
        "start": 210
      },
      {
        "length": 32,
        "start": 517
      },
      {
        "length": 32,
        "start": 846
      },
      {
        "length": 32,
        "start": 1029
      },
      {
        "length": 32,
        "start": 3153
      },
      {
        "length": 32,
        "start": 3238
      },
      {
        "length": 32,
        "start": 3392
      },
      {
        "length": 32,
        "start": 3537
      }
    ]
  },
  "inputSourceName": "project/contracts/UniswapV2Router02.sol",
  "buildInfoId": "solc-0_8_20-97417d21d699e36cee274c56c6189428d2e07aeb"
}